{
  "_format": "hh-sol-artifact-1",
  "contractName": "CrowdFunding",
  "sourceName": "contracts/CrowdFunding.sol",
  "abi": [
    {
      "inputs": [
        {
          "internalType": "string",
          "name": "_title",
          "type": "string"
        },
        {
          "internalType": "string",
          "name": "_description",
          "type": "string"
        },
        {
          "internalType": "string",
          "name": "_url",
          "type": "string"
        },
        {
          "internalType": "address payable",
          "name": "_receiver",
          "type": "address"
        },
        {
          "internalType": "uint256",
          "name": "_fund",
          "type": "uint256"
        }
      ],
      "name": "addForFunding",
      "outputs": [],
      "stateMutability": "nonpayable",
      "type": "function"
    },
    {
      "inputs": [
        {
          "internalType": "uint256",
          "name": "_id",
          "type": "uint256"
        }
      ],
      "name": "changeFundingValidity",
      "outputs": [
        {
          "internalType": "bool",
          "name": "",
          "type": "bool"
        }
      ],
      "stateMutability": "nonpayable",
      "type": "function"
    },
    {
      "inputs": [
        {
          "internalType": "uint256",
          "name": "_id",
          "type": "uint256"
        }
      ],
      "name": "contribute",
      "outputs": [],
      "stateMutability": "payable",
      "type": "function"
    },
    {
      "inputs": [
        {
          "internalType": "uint256",
          "name": "_id",
          "type": "uint256"
        }
      ],
      "name": "getFundingData",
      "outputs": [
        {
          "components": [
            {
              "internalType": "uint256",
              "name": "id",
              "type": "uint256"
            },
            {
              "internalType": "string",
              "name": "title",
              "type": "string"
            },
            {
              "internalType": "string",
              "name": "description",
              "type": "string"
            },
            {
              "internalType": "string",
              "name": "imageUrl",
              "type": "string"
            },
            {
              "internalType": "address payable",
              "name": "receiver",
              "type": "address"
            },
            {
              "internalType": "uint256",
              "name": "target",
              "type": "uint256"
            },
            {
              "internalType": "uint256",
              "name": "collection",
              "type": "uint256"
            },
            {
              "internalType": "bool",
              "name": "isOpen",
              "type": "bool"
            },
            {
              "internalType": "bool",
              "name": "isValid",
              "type": "bool"
            }
          ],
          "internalType": "struct CrowdFunding.Funding",
          "name": "",
          "type": "tuple"
        }
      ],
      "stateMutability": "view",
      "type": "function"
    },
    {
      "inputs": [],
      "name": "getTotalFundRaised",
      "outputs": [
        {
          "internalType": "uint256",
          "name": "",
          "type": "uint256"
        }
      ],
      "stateMutability": "view",
      "type": "function"
    },
    {
      "inputs": [],
      "name": "totalFundings",
      "outputs": [
        {
          "internalType": "uint256",
          "name": "",
          "type": "uint256"
        }
      ],
      "stateMutability": "view",
      "type": "function"
    }
  ],
  "bytecode": "0x60806040526000600155600060025533600360006101000a81548173ffffffffffffffffffffffffffffffffffffffff021916908373ffffffffffffffffffffffffffffffffffffffff16021790555034801561005b57600080fd5b506117768061006b6000396000f3fe6080604052600436106100555760003560e01c8063259892e61461005a5780633f75ec131461009757806397fa420f146100c2578063c1cbbca7146100ed578063c88044dd14610109578063fdb9aa1814610146575b600080fd5b34801561006657600080fd5b50610081600480360381019061007c9190611060565b61016f565b60405161008e919061128f565b60405180910390f35b3480156100a357600080fd5b506100ac6103f9565b6040516100b9919061136c565b60405180910390f35b3480156100ce57600080fd5b506100d7610405565b6040516100e4919061136c565b60405180910390f35b61010760048036038101906101029190611060565b61040f565b005b34801561011557600080fd5b50610130600480360381019061012b9190611060565b61099a565b60405161013d919061134a565b60405180910390f35b34801561015257600080fd5b5061016d60048036038101906101689190610fa1565b610c5d565b005b6000600360009054906101000a900473ffffffffffffffffffffffffffffffffffffffff1673ffffffffffffffffffffffffffffffffffffffff163373ffffffffffffffffffffffffffffffffffffffff1614610201576040517f08c379a00000000000000000000000000000000000000000000000000000000081526004016101f89061132a565b60405180910390fd5b600115156000838154811061023f577f4e487b7100000000000000000000000000000000000000000000000000000000600052603260045260246000fd5b906000526020600020906008020160070160019054906101000a900460ff16151514156102ce5760008083815481106102a1577f4e487b7100000000000000000000000000000000000000000000000000000000600052603260045260246000fd5b906000526020600020906008020160070160016101000a81548160ff021916908315150217905550610399565b600015156000838154811061030c577f4e487b7100000000000000000000000000000000000000000000000000000000600052603260045260246000fd5b906000526020600020906008020160070160019054906101000a900460ff16151514156103985760016000838154811061036f577f4e487b7100000000000000000000000000000000000000000000000000000000600052603260045260246000fd5b906000526020600020906008020160070160016101000a81548160ff0219169083151502179055505b5b600082815481106103d3577f4e487b7100000000000000000000000000000000000000000000000000000000600052603260045260246000fd5b906000526020600020906008020160070160019054906101000a900460ff169050919050565b60008080549050905090565b6000600254905090565b80600115156000828154811061044e577f4e487b7100000000000000000000000000000000000000000000000000000000600052603260045260246000fd5b906000526020600020906008020160070160009054906101000a900460ff161515146104af576040517f08c379a00000000000000000000000000000000000000000000000000000000081526004016104a6906112ea565b60405180910390fd5b8160011515600082815481106104ee577f4e487b7100000000000000000000000000000000000000000000000000000000600052603260045260246000fd5b906000526020600020906008020160070160019054906101000a900460ff1615151461054f576040517f08c379a0000000000000000000000000000000000000000000000000000000008152600401610546906112ca565b60405180910390fd5b823373ffffffffffffffffffffffffffffffffffffffff16600082815481106105a1577f4e487b7100000000000000000000000000000000000000000000000000000000600052603260045260246000fd5b906000526020600020906008020160040160009054906101000a900473ffffffffffffffffffffffffffffffffffffffff1673ffffffffffffffffffffffffffffffffffffffff16141561062a576040517f08c379a00000000000000000000000000000000000000000000000000000000081526004016106219061130a565b60405180910390fd5b8360008181548110610665577f4e487b7100000000000000000000000000000000000000000000000000000000600052603260045260246000fd5b906000526020600020906008020160060154600082815481106106b1577f4e487b7100000000000000000000000000000000000000000000000000000000600052603260045260246000fd5b9060005260206000209060080201600501546106cd9190611460565b34111561070f576040517f08c379a0000000000000000000000000000000000000000000000000000000008152600401610706906112aa565b60405180910390fd5b346000868154811061074a577f4e487b7100000000000000000000000000000000000000000000000000000000600052603260045260246000fd5b9060005260206000209060080201600601600082825461076a919061140a565b925050819055503460026000828254610783919061140a565b92505081905550600085815481106107c4577f4e487b7100000000000000000000000000000000000000000000000000000000600052603260045260246000fd5b90600052602060002090600802016005015460008681548110610810577f4e487b7100000000000000000000000000000000000000000000000000000000600052603260045260246000fd5b9060005260206000209060080201600601541415610993576000808681548110610863577f4e487b7100000000000000000000000000000000000000000000000000000000600052603260045260246000fd5b906000526020600020906008020160040160009054906101000a900473ffffffffffffffffffffffffffffffffffffffff16905060008087815481106108d2577f4e487b7100000000000000000000000000000000000000000000000000000000600052603260045260246000fd5b90600052602060002090600802016005015490508173ffffffffffffffffffffffffffffffffffffffff166108fc829081150290604051600060405180830381858888f1935050505015801561092c573d6000803e3d6000fd5b506000808881548110610968577f4e487b7100000000000000000000000000000000000000000000000000000000600052603260045260246000fd5b906000526020600020906008020160070160006101000a81548160ff02191690831515021790555050505b5050505050565b6109a2610e06565b600082815481106109dc577f4e487b7100000000000000000000000000000000000000000000000000000000600052603260045260246000fd5b90600052602060002090600802016040518061012001604052908160008201548152602001600182018054610a109061151e565b80601f0160208091040260200160405190810160405280929190818152602001828054610a3c9061151e565b8015610a895780601f10610a5e57610100808354040283529160200191610a89565b820191906000526020600020905b815481529060010190602001808311610a6c57829003601f168201915b50505050508152602001600282018054610aa29061151e565b80601f0160208091040260200160405190810160405280929190818152602001828054610ace9061151e565b8015610b1b5780601f10610af057610100808354040283529160200191610b1b565b820191906000526020600020905b815481529060010190602001808311610afe57829003601f168201915b50505050508152602001600382018054610b349061151e565b80601f0160208091040260200160405190810160405280929190818152602001828054610b609061151e565b8015610bad5780601f10610b8257610100808354040283529160200191610bad565b820191906000526020600020905b815481529060010190602001808311610b9057829003601f168201915b505050505081526020016004820160009054906101000a900473ffffffffffffffffffffffffffffffffffffffff1673ffffffffffffffffffffffffffffffffffffffff1673ffffffffffffffffffffffffffffffffffffffff16815260200160058201548152602001600682015481526020016007820160009054906101000a900460ff161515151581526020016007820160019054906101000a900460ff1615151515815250509050919050565b600060405180610120016040528060015481526020018781526020018681526020018581526020018473ffffffffffffffffffffffffffffffffffffffff16815260200183815260200160008152602001600115158152602001600115158152509080600181540180825580915050600190039060005260206000209060080201600090919091909150600082015181600001556020820151816001019080519060200190610d0d929190610e6c565b506040820151816002019080519060200190610d2a929190610e6c565b506060820151816003019080519060200190610d47929190610e6c565b5060808201518160040160006101000a81548173ffffffffffffffffffffffffffffffffffffffff021916908373ffffffffffffffffffffffffffffffffffffffff16021790555060a0820151816005015560c0820151816006015560e08201518160070160006101000a81548160ff0219169083151502179055506101008201518160070160016101000a81548160ff02191690831515021790555050506001806000828254610df8919061140a565b925050819055505050505050565b60405180610120016040528060008152602001606081526020016060815260200160608152602001600073ffffffffffffffffffffffffffffffffffffffff16815260200160008152602001600081526020016000151581526020016000151581525090565b828054610e789061151e565b90600052602060002090601f016020900481019282610e9a5760008555610ee1565b82601f10610eb357805160ff1916838001178555610ee1565b82800160010185558215610ee1579182015b82811115610ee0578251825591602001919060010190610ec5565b5b509050610eee9190610ef2565b5090565b5b80821115610f0b576000816000905550600101610ef3565b5090565b6000610f22610f1d846113ac565b611387565b905082815260208101848484011115610f3a57600080fd5b610f458482856114dc565b509392505050565b600081359050610f5c81611712565b92915050565b600082601f830112610f7357600080fd5b8135610f83848260208601610f0f565b91505092915050565b600081359050610f9b81611729565b92915050565b600080600080600060a08688031215610fb957600080fd5b600086013567ffffffffffffffff811115610fd357600080fd5b610fdf88828901610f62565b955050602086013567ffffffffffffffff811115610ffc57600080fd5b61100888828901610f62565b945050604086013567ffffffffffffffff81111561102557600080fd5b61103188828901610f62565b935050606061104288828901610f4d565b925050608061105388828901610f8c565b9150509295509295909350565b60006020828403121561107257600080fd5b600061108084828501610f8c565b91505092915050565b61109281611494565b82525050565b6110a1816114a6565b82525050565b6110b0816114a6565b82525050565b60006110c1826113dd565b6110cb81856113e8565b93506110db8185602086016114eb565b6110e48161160e565b840191505092915050565b60006110fc6029836113f9565b91506111078261161f565b604082019050919050565b600061111f601c836113f9565b915061112a8261166e565b602082019050919050565b60006111426011836113f9565b915061114d82611697565b602082019050919050565b60006111656020836113f9565b9150611170826116c0565b602082019050919050565b6000611188601b836113f9565b9150611193826116e9565b602082019050919050565b6000610120830160008301516111b76000860182611271565b50602083015184820360208601526111cf82826110b6565b915050604083015184820360408601526111e982826110b6565b9150506060830151848203606086015261120382826110b6565b91505060808301516112186080860182611089565b5060a083015161122b60a0860182611271565b5060c083015161123e60c0860182611271565b5060e083015161125160e0860182611098565b50610100830151611266610100860182611098565b508091505092915050565b61127a816114d2565b82525050565b611289816114d2565b82525050565b60006020820190506112a460008301846110a7565b92915050565b600060208201905081810360008301526112c3816110ef565b9050919050565b600060208201905081810360008301526112e381611112565b9050919050565b6000602082019050818103600083015261130381611135565b9050919050565b6000602082019050818103600083015261132381611158565b9050919050565b600060208201905081810360008301526113438161117b565b9050919050565b60006020820190508181036000830152611364818461119e565b905092915050565b60006020820190506113816000830184611280565b92915050565b60006113916113a2565b905061139d8282611550565b919050565b6000604051905090565b600067ffffffffffffffff8211156113c7576113c66115df565b5b6113d08261160e565b9050602081019050919050565b600081519050919050565b600082825260208201905092915050565b600082825260208201905092915050565b6000611415826114d2565b9150611420836114d2565b9250827fffffffffffffffffffffffffffffffffffffffffffffffffffffffffffffffff0382111561145557611454611581565b5b828201905092915050565b600061146b826114d2565b9150611476836114d2565b92508282101561148957611488611581565b5b828203905092915050565b600061149f826114b2565b9050919050565b60008115159050919050565b600073ffffffffffffffffffffffffffffffffffffffff82169050919050565b6000819050919050565b82818337600083830152505050565b60005b838110156115095780820151818401526020810190506114ee565b83811115611518576000848401525b50505050565b6000600282049050600182168061153657607f821691505b6020821081141561154a576115496115b0565b5b50919050565b6115598261160e565b810181811067ffffffffffffffff82111715611578576115776115df565b5b80604052505050565b7f4e487b7100000000000000000000000000000000000000000000000000000000600052601160045260246000fd5b7f4e487b7100000000000000000000000000000000000000000000000000000000600052602260045260246000fd5b7f4e487b7100000000000000000000000000000000000000000000000000000000600052604160045260246000fd5b6000601f19601f8301169050919050565b7f46756e64696e6720616d6f756e7420657863656564732074617267657465642060008201527f616d6f756e742021210000000000000000000000000000000000000000000000602082015250565b7f43616e27742066756e6420666f72207468697320636175736520212100000000600082015250565b7f416c726561647920436c6f736564202121000000000000000000000000000000600082015250565b7f596f752063616e27742066756e6420796f7572206f776e206361757365202121600082015250565b7f4e6f7420616e20617574686f72697a656420706572736f6e2021210000000000600082015250565b61171b81611494565b811461172657600080fd5b50565b611732816114d2565b811461173d57600080fd5b5056fea264697066735822122010960956740d2965c612fc4c53f3fc1a02c232d38205883ed6213f4c8e7bcbcb64736f6c63430008040033",
  "linkReferences": {},
  "deployedLinkReferences": {}
}