{
  "_format": "hh-sol-artifact-1",
  "contractName": "CrowdFunding",
  "sourceName": "contracts/CrowdFunding.sol",
  "abi": [
    {
      "inputs": [
        {
          "internalType": "string",
          "name": "_title",
          "type": "string"
        },
        {
          "internalType": "string",
          "name": "_description",
          "type": "string"
        },
        {
          "internalType": "string",
          "name": "_imageId",
          "type": "string"
        },
        {
          "internalType": "address payable",
          "name": "_receiver",
          "type": "address"
        },
        {
          "internalType": "uint256",
          "name": "_fund",
          "type": "uint256"
        }
      ],
      "name": "addForFunding",
      "outputs": [],
      "stateMutability": "nonpayable",
      "type": "function"
    },
    {
      "inputs": [
        {
          "internalType": "uint256",
          "name": "_id",
          "type": "uint256"
        }
      ],
      "name": "changeFundingValidity",
      "outputs": [
        {
          "internalType": "bool",
          "name": "",
          "type": "bool"
        }
      ],
      "stateMutability": "nonpayable",
      "type": "function"
    },
    {
      "inputs": [
        {
          "internalType": "uint256",
          "name": "_id",
          "type": "uint256"
        }
      ],
      "name": "contribute",
      "outputs": [],
      "stateMutability": "payable",
      "type": "function"
    },
    {
      "inputs": [
        {
          "internalType": "uint256",
          "name": "",
          "type": "uint256"
        }
      ],
      "name": "fundingArr",
      "outputs": [
        {
          "internalType": "uint256",
          "name": "id",
          "type": "uint256"
        },
        {
          "internalType": "string",
          "name": "title",
          "type": "string"
        },
        {
          "internalType": "string",
          "name": "description",
          "type": "string"
        },
        {
          "internalType": "string",
          "name": "imageId",
          "type": "string"
        },
        {
          "internalType": "address payable",
          "name": "receiver",
          "type": "address"
        },
        {
          "internalType": "uint256",
          "name": "target",
          "type": "uint256"
        },
        {
          "internalType": "uint256",
          "name": "collection",
          "type": "uint256"
        },
        {
          "internalType": "bool",
          "name": "isOpen",
          "type": "bool"
        },
        {
          "internalType": "bool",
          "name": "isValid",
          "type": "bool"
        }
      ],
      "stateMutability": "view",
      "type": "function"
    },
    {
      "inputs": [],
      "name": "getFundingData",
      "outputs": [
        {
          "components": [
            {
              "internalType": "uint256",
              "name": "id",
              "type": "uint256"
            },
            {
              "internalType": "string",
              "name": "title",
              "type": "string"
            },
            {
              "internalType": "string",
              "name": "description",
              "type": "string"
            },
            {
              "internalType": "string",
              "name": "imageId",
              "type": "string"
            },
            {
              "internalType": "address payable",
              "name": "receiver",
              "type": "address"
            },
            {
              "internalType": "uint256",
              "name": "target",
              "type": "uint256"
            },
            {
              "internalType": "uint256",
              "name": "collection",
              "type": "uint256"
            },
            {
              "internalType": "bool",
              "name": "isOpen",
              "type": "bool"
            },
            {
              "internalType": "bool",
              "name": "isValid",
              "type": "bool"
            }
          ],
          "internalType": "struct CrowdFunding.Funding[]",
          "name": "",
          "type": "tuple[]"
        }
      ],
      "stateMutability": "view",
      "type": "function"
    },
    {
      "inputs": [
        {
          "internalType": "uint256",
          "name": "_id",
          "type": "uint256"
        }
      ],
      "name": "getFundingItem",
      "outputs": [
        {
          "components": [
            {
              "internalType": "uint256",
              "name": "id",
              "type": "uint256"
            },
            {
              "internalType": "string",
              "name": "title",
              "type": "string"
            },
            {
              "internalType": "string",
              "name": "description",
              "type": "string"
            },
            {
              "internalType": "string",
              "name": "imageId",
              "type": "string"
            },
            {
              "internalType": "address payable",
              "name": "receiver",
              "type": "address"
            },
            {
              "internalType": "uint256",
              "name": "target",
              "type": "uint256"
            },
            {
              "internalType": "uint256",
              "name": "collection",
              "type": "uint256"
            },
            {
              "internalType": "bool",
              "name": "isOpen",
              "type": "bool"
            },
            {
              "internalType": "bool",
              "name": "isValid",
              "type": "bool"
            }
          ],
          "internalType": "struct CrowdFunding.Funding",
          "name": "",
          "type": "tuple"
        }
      ],
      "stateMutability": "view",
      "type": "function"
    },
    {
      "inputs": [],
      "name": "getTotalFundRaised",
      "outputs": [
        {
          "internalType": "uint256",
          "name": "",
          "type": "uint256"
        }
      ],
      "stateMutability": "view",
      "type": "function"
    },
    {
      "inputs": [],
      "name": "getTotalFundingData",
      "outputs": [
        {
          "internalType": "uint256",
          "name": "",
          "type": "uint256"
        }
      ],
      "stateMutability": "view",
      "type": "function"
    }
  ],
  "bytecode": "0x60806040526000600155600060025533600360006101000a81548173ffffffffffffffffffffffffffffffffffffffff021916908373ffffffffffffffffffffffffffffffffffffffff16021790555034801561005b57600080fd5b50611f9d8061006b6000396000f3fe60806040526004361061007b5760003560e01c806397fa420f1161004e57806397fa420f14610150578063c1cbbca71461017b578063f23f0e8814610197578063fdb9aa18146101dc5761007b565b8063259892e6146100805780633b4e180f146100bd5780633e162c44146100e85780638a3b650214610113575b600080fd5b34801561008c57600080fd5b506100a760048036038101906100a291906115e6565b610205565b6040516100b491906119db565b60405180910390f35b3480156100c957600080fd5b506100d261048f565b6040516100df9190611ab8565b60405180910390f35b3480156100f457600080fd5b506100fd61049b565b60405161010a91906119b9565b60405180910390f35b34801561011f57600080fd5b5061013a600480360381019061013591906115e6565b61075b565b6040516101479190611a96565b60405180910390f35b34801561015c57600080fd5b50610165610a1e565b6040516101729190611ab8565b60405180910390f35b610195600480360381019061019091906115e6565b610a28565b005b3480156101a357600080fd5b506101be60048036038101906101b991906115e6565b610fb3565b6040516101d399989796959493929190611ad3565b60405180910390f35b3480156101e857600080fd5b5061020360048036038101906101fe9190611527565b6111e3565b005b6000600360009054906101000a900473ffffffffffffffffffffffffffffffffffffffff1673ffffffffffffffffffffffffffffffffffffffff163373ffffffffffffffffffffffffffffffffffffffff1614610297576040517f08c379a000000000000000000000000000000000000000000000000000000000815260040161028e90611a76565b60405180910390fd5b60011515600083815481106102d5577f4e487b7100000000000000000000000000000000000000000000000000000000600052603260045260246000fd5b906000526020600020906008020160070160019054906101000a900460ff1615151415610364576000808381548110610337577f4e487b7100000000000000000000000000000000000000000000000000000000600052603260045260246000fd5b906000526020600020906008020160070160016101000a81548160ff02191690831515021790555061042f565b60001515600083815481106103a2577f4e487b7100000000000000000000000000000000000000000000000000000000600052603260045260246000fd5b906000526020600020906008020160070160019054906101000a900460ff161515141561042e57600160008381548110610405577f4e487b7100000000000000000000000000000000000000000000000000000000600052603260045260246000fd5b906000526020600020906008020160070160016101000a81548160ff0219169083151502179055505b5b60008281548110610469577f4e487b7100000000000000000000000000000000000000000000000000000000600052603260045260246000fd5b906000526020600020906008020160070160019054906101000a900460ff169050919050565b60008080549050905090565b60606000805480602002602001604051908101604052809291908181526020016000905b82821015610752578382906000526020600020906008020160405180610120016040529081600082015481526020016001820180546104fd90611d45565b80601f016020809104026020016040519081016040528092919081815260200182805461052990611d45565b80156105765780601f1061054b57610100808354040283529160200191610576565b820191906000526020600020905b81548152906001019060200180831161055957829003601f168201915b5050505050815260200160028201805461058f90611d45565b80601f01602080910402602001604051908101604052809291908181526020018280546105bb90611d45565b80156106085780601f106105dd57610100808354040283529160200191610608565b820191906000526020600020905b8154815290600101906020018083116105eb57829003601f168201915b5050505050815260200160038201805461062190611d45565b80601f016020809104026020016040519081016040528092919081815260200182805461064d90611d45565b801561069a5780601f1061066f5761010080835404028352916020019161069a565b820191906000526020600020905b81548152906001019060200180831161067d57829003601f168201915b505050505081526020016004820160009054906101000a900473ffffffffffffffffffffffffffffffffffffffff1673ffffffffffffffffffffffffffffffffffffffff1673ffffffffffffffffffffffffffffffffffffffff16815260200160058201548152602001600682015481526020016007820160009054906101000a900460ff161515151581526020016007820160019054906101000a900460ff161515151581525050815260200190600101906104bf565b50505050905090565b61076361138c565b6000828154811061079d577f4e487b7100000000000000000000000000000000000000000000000000000000600052603260045260246000fd5b906000526020600020906008020160405180610120016040529081600082015481526020016001820180546107d190611d45565b80601f01602080910402602001604051908101604052809291908181526020018280546107fd90611d45565b801561084a5780601f1061081f5761010080835404028352916020019161084a565b820191906000526020600020905b81548152906001019060200180831161082d57829003601f168201915b5050505050815260200160028201805461086390611d45565b80601f016020809104026020016040519081016040528092919081815260200182805461088f90611d45565b80156108dc5780601f106108b1576101008083540402835291602001916108dc565b820191906000526020600020905b8154815290600101906020018083116108bf57829003601f168201915b505050505081526020016003820180546108f590611d45565b80601f016020809104026020016040519081016040528092919081815260200182805461092190611d45565b801561096e5780601f106109435761010080835404028352916020019161096e565b820191906000526020600020905b81548152906001019060200180831161095157829003601f168201915b505050505081526020016004820160009054906101000a900473ffffffffffffffffffffffffffffffffffffffff1673ffffffffffffffffffffffffffffffffffffffff1673ffffffffffffffffffffffffffffffffffffffff16815260200160058201548152602001600682015481526020016007820160009054906101000a900460ff161515151581526020016007820160019054906101000a900460ff1615151515815250509050919050565b6000600254905090565b806001151560008281548110610a67577f4e487b7100000000000000000000000000000000000000000000000000000000600052603260045260246000fd5b906000526020600020906008020160070160009054906101000a900460ff16151514610ac8576040517f08c379a0000000000000000000000000000000000000000000000000000000008152600401610abf90611a36565b60405180910390fd5b816001151560008281548110610b07577f4e487b7100000000000000000000000000000000000000000000000000000000600052603260045260246000fd5b906000526020600020906008020160070160019054906101000a900460ff16151514610b68576040517f08c379a0000000000000000000000000000000000000000000000000000000008152600401610b5f90611a16565b60405180910390fd5b823373ffffffffffffffffffffffffffffffffffffffff1660008281548110610bba577f4e487b7100000000000000000000000000000000000000000000000000000000600052603260045260246000fd5b906000526020600020906008020160040160009054906101000a900473ffffffffffffffffffffffffffffffffffffffff1673ffffffffffffffffffffffffffffffffffffffff161415610c43576040517f08c379a0000000000000000000000000000000000000000000000000000000008152600401610c3a90611a56565b60405180910390fd5b8360008181548110610c7e577f4e487b7100000000000000000000000000000000000000000000000000000000600052603260045260246000fd5b90600052602060002090600802016006015460008281548110610cca577f4e487b7100000000000000000000000000000000000000000000000000000000600052603260045260246000fd5b906000526020600020906008020160050154610ce69190611c87565b341115610d28576040517f08c379a0000000000000000000000000000000000000000000000000000000008152600401610d1f906119f6565b60405180910390fd5b3460008681548110610d63577f4e487b7100000000000000000000000000000000000000000000000000000000600052603260045260246000fd5b90600052602060002090600802016006016000828254610d839190611c31565b925050819055503460026000828254610d9c9190611c31565b9250508190555060008581548110610ddd577f4e487b7100000000000000000000000000000000000000000000000000000000600052603260045260246000fd5b90600052602060002090600802016005015460008681548110610e29577f4e487b7100000000000000000000000000000000000000000000000000000000600052603260045260246000fd5b9060005260206000209060080201600601541415610fac576000808681548110610e7c577f4e487b7100000000000000000000000000000000000000000000000000000000600052603260045260246000fd5b906000526020600020906008020160040160009054906101000a900473ffffffffffffffffffffffffffffffffffffffff1690506000808781548110610eeb577f4e487b7100000000000000000000000000000000000000000000000000000000600052603260045260246000fd5b90600052602060002090600802016005015490508173ffffffffffffffffffffffffffffffffffffffff166108fc829081150290604051600060405180830381858888f19350505050158015610f45573d6000803e3d6000fd5b506000808881548110610f81577f4e487b7100000000000000000000000000000000000000000000000000000000600052603260045260246000fd5b906000526020600020906008020160070160006101000a81548160ff02191690831515021790555050505b5050505050565b60008181548110610fc357600080fd5b9060005260206000209060080201600091509050806000015490806001018054610fec90611d45565b80601f016020809104026020016040519081016040528092919081815260200182805461101890611d45565b80156110655780601f1061103a57610100808354040283529160200191611065565b820191906000526020600020905b81548152906001019060200180831161104857829003601f168201915b50505050509080600201805461107a90611d45565b80601f01602080910402602001604051908101604052809291908181526020018280546110a690611d45565b80156110f35780601f106110c8576101008083540402835291602001916110f3565b820191906000526020600020905b8154815290600101906020018083116110d657829003601f168201915b50505050509080600301805461110890611d45565b80601f016020809104026020016040519081016040528092919081815260200182805461113490611d45565b80156111815780601f1061115657610100808354040283529160200191611181565b820191906000526020600020905b81548152906001019060200180831161116457829003601f168201915b5050505050908060040160009054906101000a900473ffffffffffffffffffffffffffffffffffffffff16908060050154908060060154908060070160009054906101000a900460ff16908060070160019054906101000a900460ff16905089565b600060405180610120016040528060015481526020018781526020018681526020018581526020018473ffffffffffffffffffffffffffffffffffffffff168152602001838152602001600081526020016001151581526020016001151581525090806001815401808255809150506001900390600052602060002090600802016000909190919091506000820151816000015560208201518160010190805190602001906112939291906113f2565b5060408201518160020190805190602001906112b09291906113f2565b5060608201518160030190805190602001906112cd9291906113f2565b5060808201518160040160006101000a81548173ffffffffffffffffffffffffffffffffffffffff021916908373ffffffffffffffffffffffffffffffffffffffff16021790555060a0820151816005015560c0820151816006015560e08201518160070160006101000a81548160ff0219169083151502179055506101008201518160070160016101000a81548160ff0219169083151502179055505050600180600082825461137e9190611c31565b925050819055505050505050565b60405180610120016040528060008152602001606081526020016060815260200160608152602001600073ffffffffffffffffffffffffffffffffffffffff16815260200160008152602001600081526020016000151581526020016000151581525090565b8280546113fe90611d45565b90600052602060002090601f0160209004810192826114205760008555611467565b82601f1061143957805160ff1916838001178555611467565b82800160010185558215611467579182015b8281111561146657825182559160200191906001019061144b565b5b5090506114749190611478565b5090565b5b80821115611491576000816000905550600101611479565b5090565b60006114a86114a384611b9a565b611b75565b9050828152602081018484840111156114c057600080fd5b6114cb848285611d03565b509392505050565b6000813590506114e281611f39565b92915050565b600082601f8301126114f957600080fd5b8135611509848260208601611495565b91505092915050565b60008135905061152181611f50565b92915050565b600080600080600060a0868803121561153f57600080fd5b600086013567ffffffffffffffff81111561155957600080fd5b611565888289016114e8565b955050602086013567ffffffffffffffff81111561158257600080fd5b61158e888289016114e8565b945050604086013567ffffffffffffffff8111156115ab57600080fd5b6115b7888289016114e8565b93505060606115c8888289016114d3565b92505060806115d988828901611512565b9150509295509295909350565b6000602082840312156115f857600080fd5b600061160684828501611512565b91505092915050565b600061161b83836117f5565b905092915050565b61162c81611cbb565b82525050565b61163b81611cbb565b82525050565b600061164c82611bdb565b6116568185611bfe565b93508360208202850161166885611bcb565b8060005b858110156116a45784840389528151611685858261160f565b945061169083611bf1565b925060208a0199505060018101905061166c565b50829750879550505050505092915050565b6116bf81611ccd565b82525050565b6116ce81611ccd565b82525050565b60006116df82611be6565b6116e98185611c0f565b93506116f9818560208601611d12565b61170281611e35565b840191505092915050565b600061171882611be6565b6117228185611c20565b9350611732818560208601611d12565b61173b81611e35565b840191505092915050565b6000611753602983611c20565b915061175e82611e46565b604082019050919050565b6000611776601c83611c20565b915061178182611e95565b602082019050919050565b6000611799601183611c20565b91506117a482611ebe565b602082019050919050565b60006117bc602083611c20565b91506117c782611ee7565b602082019050919050565b60006117df601b83611c20565b91506117ea82611f10565b602082019050919050565b60006101208301600083015161180e600086018261199b565b506020830151848203602086015261182682826116d4565b9150506040830151848203604086015261184082826116d4565b9150506060830151848203606086015261185a82826116d4565b915050608083015161186f6080860182611623565b5060a083015161188260a086018261199b565b5060c083015161189560c086018261199b565b5060e08301516118a860e08601826116b6565b506101008301516118bd6101008601826116b6565b508091505092915050565b6000610120830160008301516118e1600086018261199b565b50602083015184820360208601526118f982826116d4565b9150506040830151848203604086015261191382826116d4565b9150506060830151848203606086015261192d82826116d4565b91505060808301516119426080860182611623565b5060a083015161195560a086018261199b565b5060c083015161196860c086018261199b565b5060e083015161197b60e08601826116b6565b506101008301516119906101008601826116b6565b508091505092915050565b6119a481611cf9565b82525050565b6119b381611cf9565b82525050565b600060208201905081810360008301526119d38184611641565b905092915050565b60006020820190506119f060008301846116c5565b92915050565b60006020820190508181036000830152611a0f81611746565b9050919050565b60006020820190508181036000830152611a2f81611769565b9050919050565b60006020820190508181036000830152611a4f8161178c565b9050919050565b60006020820190508181036000830152611a6f816117af565b9050919050565b60006020820190508181036000830152611a8f816117d2565b9050919050565b60006020820190508181036000830152611ab081846118c8565b905092915050565b6000602082019050611acd60008301846119aa565b92915050565b600061012082019050611ae9600083018c6119aa565b8181036020830152611afb818b61170d565b90508181036040830152611b0f818a61170d565b90508181036060830152611b23818961170d565b9050611b326080830188611632565b611b3f60a08301876119aa565b611b4c60c08301866119aa565b611b5960e08301856116c5565b611b676101008301846116c5565b9a9950505050505050505050565b6000611b7f611b90565b9050611b8b8282611d77565b919050565b6000604051905090565b600067ffffffffffffffff821115611bb557611bb4611e06565b5b611bbe82611e35565b9050602081019050919050565b6000819050602082019050919050565b600081519050919050565b600081519050919050565b6000602082019050919050565b600082825260208201905092915050565b600082825260208201905092915050565b600082825260208201905092915050565b6000611c3c82611cf9565b9150611c4783611cf9565b9250827fffffffffffffffffffffffffffffffffffffffffffffffffffffffffffffffff03821115611c7c57611c7b611da8565b5b828201905092915050565b6000611c9282611cf9565b9150611c9d83611cf9565b925082821015611cb057611caf611da8565b5b828203905092915050565b6000611cc682611cd9565b9050919050565b60008115159050919050565b600073ffffffffffffffffffffffffffffffffffffffff82169050919050565b6000819050919050565b82818337600083830152505050565b60005b83811015611d30578082015181840152602081019050611d15565b83811115611d3f576000848401525b50505050565b60006002820490506001821680611d5d57607f821691505b60208210811415611d7157611d70611dd7565b5b50919050565b611d8082611e35565b810181811067ffffffffffffffff82111715611d9f57611d9e611e06565b5b80604052505050565b7f4e487b7100000000000000000000000000000000000000000000000000000000600052601160045260246000fd5b7f4e487b7100000000000000000000000000000000000000000000000000000000600052602260045260246000fd5b7f4e487b7100000000000000000000000000000000000000000000000000000000600052604160045260246000fd5b6000601f19601f8301169050919050565b7f46756e64696e6720616d6f756e7420657863656564732074617267657465642060008201527f616d6f756e742021210000000000000000000000000000000000000000000000602082015250565b7f43616e27742066756e6420666f72207468697320636175736520212100000000600082015250565b7f416c726561647920436c6f736564202121000000000000000000000000000000600082015250565b7f596f752063616e27742066756e6420796f7572206f776e206361757365202121600082015250565b7f4e6f7420616e20617574686f72697a656420706572736f6e2021210000000000600082015250565b611f4281611cbb565b8114611f4d57600080fd5b50565b611f5981611cf9565b8114611f6457600080fd5b5056fea264697066735822122057a7647b61dd9b7477295ad7748de3595d58ee7b81cf37f5af522ac6b90b9e8e64736f6c63430008040033",
  "linkReferences": {},
  "deployedLinkReferences": {}
}