{
  "_format": "hh-sol-artifact-1",
  "contractName": "CrowdFunding",
  "sourceName": "contracts/CrowdFunding.sol",
  "abi": [
    {
      "inputs": [
        {
          "internalType": "string",
          "name": "_title",
          "type": "string"
        },
        {
          "internalType": "string",
          "name": "_description",
          "type": "string"
        },
        {
          "internalType": "string",
          "name": "_imageId",
          "type": "string"
        },
        {
          "internalType": "address payable",
          "name": "_receiver",
          "type": "address"
        },
        {
          "internalType": "uint256",
          "name": "_fund",
          "type": "uint256"
        }
      ],
      "name": "addForFunding",
      "outputs": [],
      "stateMutability": "nonpayable",
      "type": "function"
    },
    {
      "inputs": [
        {
          "internalType": "uint256",
          "name": "_id",
          "type": "uint256"
        }
      ],
      "name": "changeFundingValidity",
      "outputs": [
        {
          "internalType": "bool",
          "name": "",
          "type": "bool"
        }
      ],
      "stateMutability": "nonpayable",
      "type": "function"
    },
    {
      "inputs": [
        {
          "internalType": "uint256",
          "name": "_id",
          "type": "uint256"
        }
      ],
      "name": "contribute",
      "outputs": [],
      "stateMutability": "payable",
      "type": "function"
    },
    {
      "inputs": [],
      "name": "getFundingData",
      "outputs": [
        {
          "components": [
            {
              "internalType": "uint256",
              "name": "id",
              "type": "uint256"
            },
            {
              "internalType": "string",
              "name": "title",
              "type": "string"
            },
            {
              "internalType": "string",
              "name": "description",
              "type": "string"
            },
            {
              "internalType": "string",
              "name": "imageId",
              "type": "string"
            },
            {
              "internalType": "address payable",
              "name": "receiver",
              "type": "address"
            },
            {
              "internalType": "uint256",
              "name": "target",
              "type": "uint256"
            },
            {
              "internalType": "uint256",
              "name": "collection",
              "type": "uint256"
            },
            {
              "internalType": "bool",
              "name": "isOpen",
              "type": "bool"
            },
            {
              "internalType": "bool",
              "name": "isValid",
              "type": "bool"
            }
          ],
          "internalType": "struct CrowdFunding.Funding[]",
          "name": "",
          "type": "tuple[]"
        }
      ],
      "stateMutability": "view",
      "type": "function"
    },
    {
      "inputs": [
        {
          "internalType": "uint256",
          "name": "_id",
          "type": "uint256"
        }
      ],
      "name": "getFundingItem",
      "outputs": [
        {
          "components": [
            {
              "internalType": "uint256",
              "name": "id",
              "type": "uint256"
            },
            {
              "internalType": "string",
              "name": "title",
              "type": "string"
            },
            {
              "internalType": "string",
              "name": "description",
              "type": "string"
            },
            {
              "internalType": "string",
              "name": "imageId",
              "type": "string"
            },
            {
              "internalType": "address payable",
              "name": "receiver",
              "type": "address"
            },
            {
              "internalType": "uint256",
              "name": "target",
              "type": "uint256"
            },
            {
              "internalType": "uint256",
              "name": "collection",
              "type": "uint256"
            },
            {
              "internalType": "bool",
              "name": "isOpen",
              "type": "bool"
            },
            {
              "internalType": "bool",
              "name": "isValid",
              "type": "bool"
            }
          ],
          "internalType": "struct CrowdFunding.Funding",
          "name": "",
          "type": "tuple"
        }
      ],
      "stateMutability": "view",
      "type": "function"
    },
    {
      "inputs": [],
      "name": "getTotalFundRaised",
      "outputs": [
        {
          "internalType": "uint256",
          "name": "",
          "type": "uint256"
        }
      ],
      "stateMutability": "view",
      "type": "function"
    }
  ],
  "bytecode": "0x60806040526000600155600060025533600360006101000a81548173ffffffffffffffffffffffffffffffffffffffff021916908373ffffffffffffffffffffffffffffffffffffffff16021790555034801561005b57600080fd5b50611be18061006b6000396000f3fe6080604052600436106100555760003560e01c8063259892e61461005a5780633e162c44146100975780638a3b6502146100c257806397fa420f146100ff578063c1cbbca71461012a578063fdb9aa1814610146575b600080fd5b34801561006657600080fd5b50610081600480360381019061007c9190611314565b61016f565b60405161008e91906116c1565b60405180910390f35b3480156100a357600080fd5b506100ac6103f9565b6040516100b9919061169f565b60405180910390f35b3480156100ce57600080fd5b506100e960048036038101906100e49190611314565b6106b9565b6040516100f6919061177c565b60405180910390f35b34801561010b57600080fd5b5061011461097c565b604051610121919061179e565b60405180910390f35b610144600480360381019061013f9190611314565b610986565b005b34801561015257600080fd5b5061016d60048036038101906101689190611255565b610f11565b005b6000600360009054906101000a900473ffffffffffffffffffffffffffffffffffffffff1673ffffffffffffffffffffffffffffffffffffffff163373ffffffffffffffffffffffffffffffffffffffff1614610201576040517f08c379a00000000000000000000000000000000000000000000000000000000081526004016101f89061175c565b60405180910390fd5b600115156000838154811061023f577f4e487b7100000000000000000000000000000000000000000000000000000000600052603260045260246000fd5b906000526020600020906008020160070160019054906101000a900460ff16151514156102ce5760008083815481106102a1577f4e487b7100000000000000000000000000000000000000000000000000000000600052603260045260246000fd5b906000526020600020906008020160070160016101000a81548160ff021916908315150217905550610399565b600015156000838154811061030c577f4e487b7100000000000000000000000000000000000000000000000000000000600052603260045260246000fd5b906000526020600020906008020160070160019054906101000a900460ff16151514156103985760016000838154811061036f577f4e487b7100000000000000000000000000000000000000000000000000000000600052603260045260246000fd5b906000526020600020906008020160070160016101000a81548160ff0219169083151502179055505b5b600082815481106103d3577f4e487b7100000000000000000000000000000000000000000000000000000000600052603260045260246000fd5b906000526020600020906008020160070160019054906101000a900460ff169050919050565b60606000805480602002602001604051908101604052809291908181526020016000905b828210156106b05783829060005260206000209060080201604051806101200160405290816000820154815260200160018201805461045b90611989565b80601f016020809104026020016040519081016040528092919081815260200182805461048790611989565b80156104d45780601f106104a9576101008083540402835291602001916104d4565b820191906000526020600020905b8154815290600101906020018083116104b757829003601f168201915b505050505081526020016002820180546104ed90611989565b80601f016020809104026020016040519081016040528092919081815260200182805461051990611989565b80156105665780601f1061053b57610100808354040283529160200191610566565b820191906000526020600020905b81548152906001019060200180831161054957829003601f168201915b5050505050815260200160038201805461057f90611989565b80601f01602080910402602001604051908101604052809291908181526020018280546105ab90611989565b80156105f85780601f106105cd576101008083540402835291602001916105f8565b820191906000526020600020905b8154815290600101906020018083116105db57829003601f168201915b505050505081526020016004820160009054906101000a900473ffffffffffffffffffffffffffffffffffffffff1673ffffffffffffffffffffffffffffffffffffffff1673ffffffffffffffffffffffffffffffffffffffff16815260200160058201548152602001600682015481526020016007820160009054906101000a900460ff161515151581526020016007820160019054906101000a900460ff1615151515815250508152602001906001019061041d565b50505050905090565b6106c16110ba565b600082815481106106fb577f4e487b7100000000000000000000000000000000000000000000000000000000600052603260045260246000fd5b9060005260206000209060080201604051806101200160405290816000820154815260200160018201805461072f90611989565b80601f016020809104026020016040519081016040528092919081815260200182805461075b90611989565b80156107a85780601f1061077d576101008083540402835291602001916107a8565b820191906000526020600020905b81548152906001019060200180831161078b57829003601f168201915b505050505081526020016002820180546107c190611989565b80601f01602080910402602001604051908101604052809291908181526020018280546107ed90611989565b801561083a5780601f1061080f5761010080835404028352916020019161083a565b820191906000526020600020905b81548152906001019060200180831161081d57829003601f168201915b5050505050815260200160038201805461085390611989565b80601f016020809104026020016040519081016040528092919081815260200182805461087f90611989565b80156108cc5780601f106108a1576101008083540402835291602001916108cc565b820191906000526020600020905b8154815290600101906020018083116108af57829003601f168201915b505050505081526020016004820160009054906101000a900473ffffffffffffffffffffffffffffffffffffffff1673ffffffffffffffffffffffffffffffffffffffff1673ffffffffffffffffffffffffffffffffffffffff16815260200160058201548152602001600682015481526020016007820160009054906101000a900460ff161515151581526020016007820160019054906101000a900460ff1615151515815250509050919050565b6000600254905090565b8060011515600082815481106109c5577f4e487b7100000000000000000000000000000000000000000000000000000000600052603260045260246000fd5b906000526020600020906008020160070160009054906101000a900460ff16151514610a26576040517f08c379a0000000000000000000000000000000000000000000000000000000008152600401610a1d9061171c565b60405180910390fd5b816001151560008281548110610a65577f4e487b7100000000000000000000000000000000000000000000000000000000600052603260045260246000fd5b906000526020600020906008020160070160019054906101000a900460ff16151514610ac6576040517f08c379a0000000000000000000000000000000000000000000000000000000008152600401610abd906116fc565b60405180910390fd5b823373ffffffffffffffffffffffffffffffffffffffff1660008281548110610b18577f4e487b7100000000000000000000000000000000000000000000000000000000600052603260045260246000fd5b906000526020600020906008020160040160009054906101000a900473ffffffffffffffffffffffffffffffffffffffff1673ffffffffffffffffffffffffffffffffffffffff161415610ba1576040517f08c379a0000000000000000000000000000000000000000000000000000000008152600401610b989061173c565b60405180910390fd5b8360008181548110610bdc577f4e487b7100000000000000000000000000000000000000000000000000000000600052603260045260246000fd5b90600052602060002090600802016006015460008281548110610c28577f4e487b7100000000000000000000000000000000000000000000000000000000600052603260045260246000fd5b906000526020600020906008020160050154610c4491906118cb565b341115610c86576040517f08c379a0000000000000000000000000000000000000000000000000000000008152600401610c7d906116dc565b60405180910390fd5b3460008681548110610cc1577f4e487b7100000000000000000000000000000000000000000000000000000000600052603260045260246000fd5b90600052602060002090600802016006016000828254610ce19190611875565b925050819055503460026000828254610cfa9190611875565b9250508190555060008581548110610d3b577f4e487b7100000000000000000000000000000000000000000000000000000000600052603260045260246000fd5b90600052602060002090600802016005015460008681548110610d87577f4e487b7100000000000000000000000000000000000000000000000000000000600052603260045260246000fd5b9060005260206000209060080201600601541415610f0a576000808681548110610dda577f4e487b7100000000000000000000000000000000000000000000000000000000600052603260045260246000fd5b906000526020600020906008020160040160009054906101000a900473ffffffffffffffffffffffffffffffffffffffff1690506000808781548110610e49577f4e487b7100000000000000000000000000000000000000000000000000000000600052603260045260246000fd5b90600052602060002090600802016005015490508173ffffffffffffffffffffffffffffffffffffffff166108fc829081150290604051600060405180830381858888f19350505050158015610ea3573d6000803e3d6000fd5b506000808881548110610edf577f4e487b7100000000000000000000000000000000000000000000000000000000600052603260045260246000fd5b906000526020600020906008020160070160006101000a81548160ff02191690831515021790555050505b5050505050565b600060405180610120016040528060015481526020018781526020018681526020018581526020018473ffffffffffffffffffffffffffffffffffffffff16815260200183815260200160008152602001600115158152602001600115158152509080600181540180825580915050600190039060005260206000209060080201600090919091909150600082015181600001556020820151816001019080519060200190610fc1929190611120565b506040820151816002019080519060200190610fde929190611120565b506060820151816003019080519060200190610ffb929190611120565b5060808201518160040160006101000a81548173ffffffffffffffffffffffffffffffffffffffff021916908373ffffffffffffffffffffffffffffffffffffffff16021790555060a0820151816005015560c0820151816006015560e08201518160070160006101000a81548160ff0219169083151502179055506101008201518160070160016101000a81548160ff021916908315150217905550505060018060008282546110ac9190611875565b925050819055505050505050565b60405180610120016040528060008152602001606081526020016060815260200160608152602001600073ffffffffffffffffffffffffffffffffffffffff16815260200160008152602001600081526020016000151581526020016000151581525090565b82805461112c90611989565b90600052602060002090601f01602090048101928261114e5760008555611195565b82601f1061116757805160ff1916838001178555611195565b82800160010185558215611195579182015b82811115611194578251825591602001919060010190611179565b5b5090506111a291906111a6565b5090565b5b808211156111bf5760008160009055506001016111a7565b5090565b60006111d66111d1846117de565b6117b9565b9050828152602081018484840111156111ee57600080fd5b6111f9848285611947565b509392505050565b60008135905061121081611b7d565b92915050565b600082601f83011261122757600080fd5b81356112378482602086016111c3565b91505092915050565b60008135905061124f81611b94565b92915050565b600080600080600060a0868803121561126d57600080fd5b600086013567ffffffffffffffff81111561128757600080fd5b61129388828901611216565b955050602086013567ffffffffffffffff8111156112b057600080fd5b6112bc88828901611216565b945050604086013567ffffffffffffffff8111156112d957600080fd5b6112e588828901611216565b93505060606112f688828901611201565b925050608061130788828901611240565b9150509295509295909350565b60006020828403121561132657600080fd5b600061133484828501611240565b91505092915050565b600061134983836114db565b905092915050565b61135a816118ff565b82525050565b600061136b8261181f565b6113758185611842565b9350836020820285016113878561180f565b8060005b858110156113c357848403895281516113a4858261133d565b94506113af83611835565b925060208a0199505060018101905061138b565b50829750879550505050505092915050565b6113de81611911565b82525050565b6113ed81611911565b82525050565b60006113fe8261182a565b6114088185611853565b9350611418818560208601611956565b61142181611a79565b840191505092915050565b6000611439602983611864565b915061144482611a8a565b604082019050919050565b600061145c601c83611864565b915061146782611ad9565b602082019050919050565b600061147f601183611864565b915061148a82611b02565b602082019050919050565b60006114a2602083611864565b91506114ad82611b2b565b602082019050919050565b60006114c5601b83611864565b91506114d082611b54565b602082019050919050565b6000610120830160008301516114f46000860182611681565b506020830151848203602086015261150c82826113f3565b9150506040830151848203604086015261152682826113f3565b9150506060830151848203606086015261154082826113f3565b91505060808301516115556080860182611351565b5060a083015161156860a0860182611681565b5060c083015161157b60c0860182611681565b5060e083015161158e60e08601826113d5565b506101008301516115a36101008601826113d5565b508091505092915050565b6000610120830160008301516115c76000860182611681565b50602083015184820360208601526115df82826113f3565b915050604083015184820360408601526115f982826113f3565b9150506060830151848203606086015261161382826113f3565b91505060808301516116286080860182611351565b5060a083015161163b60a0860182611681565b5060c083015161164e60c0860182611681565b5060e083015161166160e08601826113d5565b506101008301516116766101008601826113d5565b508091505092915050565b61168a8161193d565b82525050565b6116998161193d565b82525050565b600060208201905081810360008301526116b98184611360565b905092915050565b60006020820190506116d660008301846113e4565b92915050565b600060208201905081810360008301526116f58161142c565b9050919050565b600060208201905081810360008301526117158161144f565b9050919050565b6000602082019050818103600083015261173581611472565b9050919050565b6000602082019050818103600083015261175581611495565b9050919050565b60006020820190508181036000830152611775816114b8565b9050919050565b6000602082019050818103600083015261179681846115ae565b905092915050565b60006020820190506117b36000830184611690565b92915050565b60006117c36117d4565b90506117cf82826119bb565b919050565b6000604051905090565b600067ffffffffffffffff8211156117f9576117f8611a4a565b5b61180282611a79565b9050602081019050919050565b6000819050602082019050919050565b600081519050919050565b600081519050919050565b6000602082019050919050565b600082825260208201905092915050565b600082825260208201905092915050565b600082825260208201905092915050565b60006118808261193d565b915061188b8361193d565b9250827fffffffffffffffffffffffffffffffffffffffffffffffffffffffffffffffff038211156118c0576118bf6119ec565b5b828201905092915050565b60006118d68261193d565b91506118e18361193d565b9250828210156118f4576118f36119ec565b5b828203905092915050565b600061190a8261191d565b9050919050565b60008115159050919050565b600073ffffffffffffffffffffffffffffffffffffffff82169050919050565b6000819050919050565b82818337600083830152505050565b60005b83811015611974578082015181840152602081019050611959565b83811115611983576000848401525b50505050565b600060028204905060018216806119a157607f821691505b602082108114156119b5576119b4611a1b565b5b50919050565b6119c482611a79565b810181811067ffffffffffffffff821117156119e3576119e2611a4a565b5b80604052505050565b7f4e487b7100000000000000000000000000000000000000000000000000000000600052601160045260246000fd5b7f4e487b7100000000000000000000000000000000000000000000000000000000600052602260045260246000fd5b7f4e487b7100000000000000000000000000000000000000000000000000000000600052604160045260246000fd5b6000601f19601f8301169050919050565b7f46756e64696e6720616d6f756e7420657863656564732074617267657465642060008201527f616d6f756e742021210000000000000000000000000000000000000000000000602082015250565b7f43616e27742066756e6420666f72207468697320636175736520212100000000600082015250565b7f416c726561647920436c6f736564202121000000000000000000000000000000600082015250565b7f596f752063616e27742066756e6420796f7572206f776e206361757365202121600082015250565b7f4e6f7420616e20617574686f72697a656420706572736f6e2021210000000000600082015250565b611b86816118ff565b8114611b9157600080fd5b50565b611b9d8161193d565b8114611ba857600080fd5b5056fea2646970667358221220e88a3443de8696992d39c84e781d95930691032268f90c452de080513443ce7f64736f6c63430008040033",
  "linkReferences": {},
  "deployedLinkReferences": {}
}